{
  "contractName": "NoGSNCommunity",
  "abi": [
    {
      "inputs": [
        {
          "internalType": "contract NoGSNCommunitiesRegistry",
          "name": "_communitiesRegistry",
          "type": "address"
        }
      ],
      "stateMutability": "nonpayable",
      "type": "constructor"
    },
    {
      "anonymous": false,
      "inputs": [
        {
          "indexed": false,
          "internalType": "address",
          "name": "_member",
          "type": "address"
        },
        {
          "indexed": false,
          "internalType": "uint256",
          "name": "_transferredTokens",
          "type": "uint256"
        }
      ],
      "name": "MemberAdded",
      "type": "event"
    },
    {
      "anonymous": false,
      "inputs": [
        {
          "indexed": false,
          "internalType": "address",
          "name": "_member",
          "type": "address"
        }
      ],
      "name": "MemberRemoved",
      "type": "event"
    },
    {
      "inputs": [
        {
          "internalType": "string",
          "name": "",
          "type": "string"
        }
      ],
      "name": "depositableACurrenciesContracts",
      "outputs": [
        {
          "internalType": "address",
          "name": "",
          "type": "address"
        }
      ],
      "stateMutability": "view",
      "type": "function"
    },
    {
      "inputs": [
        {
          "internalType": "uint256",
          "name": "",
          "type": "uint256"
        }
      ],
      "name": "depositableCurrencies",
      "outputs": [
        {
          "internalType": "string",
          "name": "",
          "type": "string"
        }
      ],
      "stateMutability": "view",
      "type": "function"
    },
    {
      "inputs": [
        {
          "internalType": "string",
          "name": "",
          "type": "string"
        }
      ],
      "name": "depositableCurrenciesContracts",
      "outputs": [
        {
          "internalType": "address",
          "name": "",
          "type": "address"
        }
      ],
      "stateMutability": "view",
      "type": "function"
    },
    {
      "inputs": [
        {
          "internalType": "address",
          "name": "",
          "type": "address"
        }
      ],
      "name": "enabledMembers",
      "outputs": [
        {
          "internalType": "bool",
          "name": "",
          "type": "bool"
        }
      ],
      "stateMutability": "view",
      "type": "function"
    },
    {
      "inputs": [],
      "name": "numberOfMembers",
      "outputs": [
        {
          "internalType": "uint256",
          "name": "",
          "type": "uint256"
        }
      ],
      "stateMutability": "view",
      "type": "function"
    },
    {
      "inputs": [],
      "name": "tokens",
      "outputs": [
        {
          "internalType": "contract DITOToken",
          "name": "",
          "type": "address"
        }
      ],
      "stateMutability": "view",
      "type": "function"
    },
    {
      "inputs": [
        {
          "internalType": "uint256",
          "name": "_amountOfDITOToRedeem",
          "type": "uint256"
        }
      ],
      "name": "join",
      "outputs": [],
      "stateMutability": "nonpayable",
      "type": "function"
    },
    {
      "inputs": [],
      "name": "leave",
      "outputs": [],
      "stateMutability": "nonpayable",
      "type": "function"
    },
    {
      "inputs": [
        {
          "internalType": "uint256",
          "name": "_amount",
          "type": "uint256"
        },
        {
          "internalType": "string",
          "name": "_currency",
          "type": "string"
        },
        {
          "internalType": "bytes",
          "name": "_optionalSignatureInfo",
          "type": "bytes"
        }
      ],
      "name": "deposit",
      "outputs": [],
      "stateMutability": "nonpayable",
      "type": "function"
    },
    {
      "inputs": [
        {
          "internalType": "uint256",
          "name": "_amount",
          "type": "uint256"
        },
        {
          "internalType": "string",
          "name": "_currency",
          "type": "string"
        }
      ],
      "name": "invest",
      "outputs": [],
      "stateMutability": "nonpayable",
      "type": "function"
    },
    {
      "inputs": [],
      "name": "getInvestedBalanceInfo",
      "outputs": [
        {
          "internalType": "uint256",
          "name": "investedBalance",
          "type": "uint256"
        },
        {
          "internalType": "uint256",
          "name": "investedTokenAPY",
          "type": "uint256"
        }
      ],
      "stateMutability": "view",
      "type": "function"
    },
    {
      "inputs": [
        {
          "internalType": "uint256",
          "name": "_amount",
          "type": "uint256"
        },
        {
          "internalType": "string",
          "name": "_currency",
          "type": "string"
        }
      ],
      "name": "withdrawFromInvestment",
      "outputs": [],
      "stateMutability": "nonpayable",
      "type": "function"
    }
  ],
  "bytecode": "0x60806040523480156200001157600080fd5b5060405162004ceb38038062004ceb833981810160405260208110156200003757600080fd5b810190808051906020019092919050505080600160006101000a81548173ffffffffffffffffffffffffffffffffffffffff021916908373ffffffffffffffffffffffffffffffffffffffff1602179055506914542ba12a337c000000604051620000a290620003a3565b80828152602001915050604051809103906000f080158015620000c9573d6000803e3d6000fd5b506000806101000a81548173ffffffffffffffffffffffffffffffffffffffff021916908373ffffffffffffffffffffffffffffffffffffffff160217905550600680600181540180825580915050600190039060005260206000200160006040518060400160405280600381526020017f44414900000000000000000000000000000000000000000000000000000000008152509091909150908051906020019062000178929190620003b1565b50600680600181540180825580915050600190039060005260206000200160006040518060400160405280600481526020017f555344430000000000000000000000000000000000000000000000000000000081525090919091509080519060200190620001e8929190620003b1565b5073f80a32a835f79d7787e8a8ee5721d0feafd78108600460405180807f44414900000000000000000000000000000000000000000000000000000000008152506003019050908152602001604051809103902060006101000a81548173ffffffffffffffffffffffffffffffffffffffff021916908373ffffffffffffffffffffffffffffffffffffffff1602179055507307865c6e87b9f70255377e024ace6630c1eaa37f600460405180807f55534443000000000000000000000000000000000000000000000000000000008152506004019050908152602001604051809103902060006101000a81548173ffffffffffffffffffffffffffffffffffffffff021916908373ffffffffffffffffffffffffffffffffffffffff16021790555073cb1fe6f440c49e9290c3eb7f158534c2dc374201600560405180807f44414900000000000000000000000000000000000000000000000000000000008152506003019050908152602001604051809103902060006101000a81548173ffffffffffffffffffffffffffffffffffffffff021916908373ffffffffffffffffffffffffffffffffffffffff1602179055505062000457565b6122518062002a9a83390190565b828054600181600116156101000203166002900490600052602060002090601f016020900481019282601f10620003f457805160ff191683800117855562000425565b8280016001018555821562000425579182015b828111156200042457825182559160200191906001019062000407565b5b50905062000434919062000438565b5090565b5b808211156200045357600081600090555060010162000439565b5090565b61263380620004676000396000f3fe608060405234801561001057600080fd5b50600436106100b45760003560e01c8063a30e3fa911610071578063a30e3fa914610451578063c2705b501461046f578063cecfd17014610534578063cfe782641461058e578063d66d9e19146106ea578063e8ae7084146106f4576100b4565b8063049878f3146100b95780631a5eba21146100e75780633705abf1146101ac5780636ab549dd146102915780637387b635146103765780639d63848a1461041d575b600080fd5b6100e5600480360360208110156100cf57600080fd5b8101908080359060200190929190505050610719565b005b6101aa600480360360408110156100fd57600080fd5b81019080803590602001909291908035906020019064010000000081111561012457600080fd5b82018360208201111561013657600080fd5b8035906020019184600183028401116401000000008311171561015857600080fd5b91908080601f016020809104026020016040519081016040528093929190818152602001838380828437600081840152601f19601f820116905080830192505050505050509192919290505050610a6e565b005b610265600480360360208110156101c257600080fd5b81019080803590602001906401000000008111156101df57600080fd5b8201836020820111156101f157600080fd5b8035906020019184600183028401116401000000008311171561021357600080fd5b91908080601f016020809104026020016040519081016040528093929190818152602001838380828437600081840152601f19601f8201169050808301925050505050505091929192905050506110e1565b604051808273ffffffffffffffffffffffffffffffffffffffff16815260200191505060405180910390f35b61034a600480360360208110156102a757600080fd5b81019080803590602001906401000000008111156102c457600080fd5b8201836020820111156102d657600080fd5b803590602001918460018302840111640100000000831117156102f857600080fd5b91908080601f016020809104026020016040519081016040528093929190818152602001838380828437600081840152601f19601f82011690508083019250505050505050919291929050505061112a565b604051808273ffffffffffffffffffffffffffffffffffffffff16815260200191505060405180910390f35b6103a26004803603602081101561038c57600080fd5b8101908080359060200190929190505050611173565b6040518080602001828103825283818151815260200191508051906020019080838360005b838110156103e25780820151818401526020810190506103c7565b50505050905090810190601f16801561040f5780820380516001836020036101000a031916815260200191505b509250505060405180910390f35b61042561122c565b604051808273ffffffffffffffffffffffffffffffffffffffff16815260200191505060405180910390f35b610459611250565b6040518082815260200191505060405180910390f35b6105326004803603604081101561048557600080fd5b8101908080359060200190929190803590602001906401000000008111156104ac57600080fd5b8201836020820111156104be57600080fd5b803590602001918460018302840111640100000000831117156104e057600080fd5b91908080601f016020809104026020016040519081016040528093929190818152602001838380828437600081840152601f19601f820116905080830192505050505050509192919290505050611256565b005b6105766004803603602081101561054a57600080fd5b81019080803573ffffffffffffffffffffffffffffffffffffffff1690602001909291905050506116cb565b60405180821515815260200191505060405180910390f35b6106e8600480360360608110156105a457600080fd5b8101908080359060200190929190803590602001906401000000008111156105cb57600080fd5b8201836020820111156105dd57600080fd5b803590602001918460018302840111640100000000831117156105ff57600080fd5b91908080601f016020809104026020016040519081016040528093929190818152602001838380828437600081840152601f19601f8201169050808301925050505050505091929192908035906020019064010000000081111561066257600080fd5b82018360208201111561067457600080fd5b8035906020019184600183028401116401000000008311171561069657600080fd5b91908080601f016020809104026020016040519081016040528093929190818152602001838380828437600081840152601f19601f8201169050808301925050505050505091929192905050506116eb565b005b6106f2611d15565b005b6106fc6120db565b604051808381526020018281526020019250505060405180910390f35b601860035410610774576040517f08c379a00000000000000000000000000000000000000000000000000000000081526004018080602001828103825260248152602001806124f76024913960400191505060405180910390fd5b60001515600260003373ffffffffffffffffffffffffffffffffffffffff1673ffffffffffffffffffffffffffffffffffffffff16815260200190815260200160002060009054906101000a900460ff1615151461083a576040517f08c379a00000000000000000000000000000000000000000000000000000000081526004018080602001828103825260138152602001807f596f7520616c7265616479206a6f696e6564210000000000000000000000000081525060200191505060405180910390fd5b6001600260003373ffffffffffffffffffffffffffffffffffffffff1673ffffffffffffffffffffffffffffffffffffffff16815260200190815260200160002060006101000a81548160ff02191690831515021790555060016003540160038190555060008054906101000a900473ffffffffffffffffffffffffffffffffffffffff1673ffffffffffffffffffffffffffffffffffffffff1663e43252d7336040518263ffffffff1660e01b8152600401808273ffffffffffffffffffffffffffffffffffffffff168152602001915050600060405180830381600087803b15801561092757600080fd5b505af115801561093b573d6000803e3d6000fd5b5050505060008054906101000a900473ffffffffffffffffffffffffffffffffffffffff1673ffffffffffffffffffffffffffffffffffffffff1663a9059cbb33670de0b6b3a764000084026040518363ffffffff1660e01b8152600401808373ffffffffffffffffffffffffffffffffffffffff16815260200182815260200192505050602060405180830381600087803b1580156109da57600080fd5b505af11580156109ee573d6000803e3d6000fd5b505050506040513d6020811015610a0457600080fd5b8101908080519060200190929190505050507fede8eed4383e9241982619b94dd83e488b274cced0fd07b8c0092a393defd52f3382604051808373ffffffffffffffffffffffffffffffffffffffff1681526020018281526020019250505060405180910390a150565b80600073ffffffffffffffffffffffffffffffffffffffff166004826040518082805190602001908083835b60208310610abd5780518252602082019150602081019050602083039250610a9a565b6001836020036101000a038019825116818451168082178552505050505050905001915050908152602001604051809103902060009054906101000a900473ffffffffffffffffffffffffffffffffffffffff1673ffffffffffffffffffffffffffffffffffffffff161415610b7e576040517f08c379a00000000000000000000000000000000000000000000000000000000081526004018080602001828103825260398152602001806124be6039913960400191505060405180910390fd5b60011515600260003373ffffffffffffffffffffffffffffffffffffffff1673ffffffffffffffffffffffffffffffffffffffff16815260200190815260200160002060009054906101000a900460ff16151514610c27576040517f08c379a00000000000000000000000000000000000000000000000000000000081526004018080602001828103825260358152602001806125a36035913960400191505060405180910390fd5b6040518060400160405280600481526020017f55534443000000000000000000000000000000000000000000000000000000008152508051906020012082805190602001201415610cc3576040517f08c379a000000000000000000000000000000000000000000000000000000000815260040180806020018281038252602b815260200180612493602b913960400191505060405180910390fd5b60006004836040518082805190602001908083835b60208310610cfb5780518252602082019150602081019050602083039250610cd8565b6001836020036101000a038019825116818451168082178552505050505050905001915050908152602001604051809103902060009054906101000a900473ffffffffffffffffffffffffffffffffffffffff1690506000819050670de0b6b3a764000085028173ffffffffffffffffffffffffffffffffffffffff166370a08231306040518263ffffffff1660e01b8152600401808273ffffffffffffffffffffffffffffffffffffffff16815260200191505060206040518083038186803b158015610dc857600080fd5b505afa158015610ddc573d6000803e3d6000fd5b505050506040513d6020811015610df257600080fd5b81019080805190602001909291905050501115610e5a576040517f08c379a00000000000000000000000000000000000000000000000000000000081526004018080602001828103825260388152602001806124256038913960400191505060405180910390fd5b6000731c8756fd2b28e9426cdbdcc7e3c4d64fa9a54728905060008173ffffffffffffffffffffffffffffffffffffffff16630261bf8b6040518163ffffffff1660e01b815260040160206040518083038186803b158015610ebb57600080fd5b505afa158015610ecf573d6000803e3d6000fd5b505050506040513d6020811015610ee557600080fd5b8101908080519060200190929190505050905060006a084595161401484a000000905060008473ffffffffffffffffffffffffffffffffffffffff1663095ea7b38573ffffffffffffffffffffffffffffffffffffffff1663ed6ff7606040518163ffffffff1660e01b815260040160206040518083038186803b158015610f6c57600080fd5b505afa158015610f80573d6000803e3d6000fd5b505050506040513d6020811015610f9657600080fd5b8101908080519060200190929190505050846040518363ffffffff1660e01b8152600401808373ffffffffffffffffffffffffffffffffffffffff16815260200182815260200192505050602060405180830381600087803b158015610ffb57600080fd5b505af115801561100f573d6000803e3d6000fd5b505050506040513d602081101561102557600080fd5b8101908080519060200190929190505050508273ffffffffffffffffffffffffffffffffffffffff1663d2d0e06687670de0b6b3a76400008c02846040518463ffffffff1660e01b8152600401808473ffffffffffffffffffffffffffffffffffffffff1681526020018381526020018261ffff1681526020019350505050600060405180830381600087803b1580156110be57600080fd5b505af11580156110d2573d6000803e3d6000fd5b50505050505050505050505050565b6004818051602081018201805184825260208301602085012081835280955050505050506000915054906101000a900473ffffffffffffffffffffffffffffffffffffffff1681565b6005818051602081018201805184825260208301602085012081835280955050505050506000915054906101000a900473ffffffffffffffffffffffffffffffffffffffff1681565b6006818154811061118057fe5b906000526020600020016000915090508054600181600116156101000203166002900480601f0160208091040260200160405190810160405280929190818152602001828054600181600116156101000203166002900480156112245780601f106111f957610100808354040283529160200191611224565b820191906000526020600020905b81548152906001019060200180831161120757829003601f168201915b505050505081565b60008054906101000a900473ffffffffffffffffffffffffffffffffffffffff1681565b60035481565b80600073ffffffffffffffffffffffffffffffffffffffff166004826040518082805190602001908083835b602083106112a55780518252602082019150602081019050602083039250611282565b6001836020036101000a038019825116818451168082178552505050505050905001915050908152602001604051809103902060009054906101000a900473ffffffffffffffffffffffffffffffffffffffff1673ffffffffffffffffffffffffffffffffffffffff161415611366576040517f08c379a00000000000000000000000000000000000000000000000000000000081526004018080602001828103825260398152602001806124be6039913960400191505060405180910390fd5b60011515600260003373ffffffffffffffffffffffffffffffffffffffff1673ffffffffffffffffffffffffffffffffffffffff16815260200190815260200160002060009054906101000a900460ff1615151461140f576040517f08c379a00000000000000000000000000000000000000000000000000000000081526004018080602001828103825260428152602001806125616042913960600191505060405180910390fd5b6040518060400160405280600481526020017f555344430000000000000000000000000000000000000000000000000000000081525080519060200120828051906020012014156114ab576040517f08c379a000000000000000000000000000000000000000000000000000000000815260040180806020018281038252602b815260200180612493602b913960400191505060405180910390fd5b60006005836040518082805190602001908083835b602083106114e357805182526020820191506020810190506020830392506114c0565b6001836020036101000a038019825116818451168082178552505050505050905001915050908152602001604051809103902060009054906101000a900473ffffffffffffffffffffffffffffffffffffffff1690506000819050600015158173ffffffffffffffffffffffffffffffffffffffff16635eae177c30670de0b6b3a764000089026040518363ffffffff1660e01b8152600401808373ffffffffffffffffffffffffffffffffffffffff1681526020018281526020019250505060206040518083038186803b1580156115bb57600080fd5b505afa1580156115cf573d6000803e3d6000fd5b505050506040513d60208110156115e557600080fd5b81019080805190602001909291905050501515141561164f576040517f08c379a000000000000000000000000000000000000000000000000000000000815260040180806020018281038252604681526020018061251b6046913960600191505060405180910390fd5b8073ffffffffffffffffffffffffffffffffffffffff1663db006a75670de0b6b3a764000087026040518263ffffffff1660e01b815260040180828152602001915050600060405180830381600087803b1580156116ac57600080fd5b505af11580156116c0573d6000803e3d6000fd5b505050505050505050565b60026020528060005260406000206000915054906101000a900460ff1681565b81600073ffffffffffffffffffffffffffffffffffffffff166004826040518082805190602001908083835b6020831061173a5780518252602082019150602081019050602083039250611717565b6001836020036101000a038019825116818451168082178552505050505050905001915050908152602001604051809103902060009054906101000a900473ffffffffffffffffffffffffffffffffffffffff1673ffffffffffffffffffffffffffffffffffffffff1614156117fb576040517f08c379a00000000000000000000000000000000000000000000000000000000081526004018080602001828103825260398152602001806124be6039913960400191505060405180910390fd5b60011515600260003373ffffffffffffffffffffffffffffffffffffffff1673ffffffffffffffffffffffffffffffffffffffff16815260200190815260200160002060009054906101000a900460ff161515146118a4576040517f08c379a000000000000000000000000000000000000000000000000000000000815260040180806020018281038252603681526020018061245d6036913960400191505060405180910390fd5b60006004846040518082805190602001908083835b602083106118dc57805182526020820191506020810190506020830392506118b9565b6001836020036101000a038019825116818451168082178552505050505050905001915050908152602001604051809103902060009054906101000a900473ffffffffffffffffffffffffffffffffffffffff1690506000819050670de0b6b3a764000086028173ffffffffffffffffffffffffffffffffffffffff166370a08231336040518263ffffffff1660e01b8152600401808273ffffffffffffffffffffffffffffffffffffffff16815260200191505060206040518083038186803b1580156119a957600080fd5b505afa1580156119bd573d6000803e3d6000fd5b505050506040513d60208110156119d357600080fd5b81019080805190602001909291905050501115611a3b576040517f08c379a00000000000000000000000000000000000000000000000000000000081526004018080602001828103825260268152602001806125d86026913960400191505060405180910390fd5b6000858051906020012090506000670de0b6b3a7640000880290506040518060400160405280600381526020017f444149000000000000000000000000000000000000000000000000000000000081525080519060200120821415611b6a578273ffffffffffffffffffffffffffffffffffffffff166323b872dd3330846040518463ffffffff1660e01b8152600401808473ffffffffffffffffffffffffffffffffffffffff1681526020018373ffffffffffffffffffffffffffffffffffffffff1681526020018281526020019350505050602060405180830381600087803b158015611b2957600080fd5b505af1158015611b3d573d6000803e3d6000fd5b505050506040513d6020811015611b5357600080fd5b810190808051906020019092919050505050611d0b565b6040518060400160405280600481526020017f555344430000000000000000000000000000000000000000000000000000000081525080519060200120821415611d0a576000806000806000808b80602001905160c0811015611bcc57600080fd5b81019080805190602001909291908051906020019092919080519060200190929190805190602001909291908051906020019092919080519060200190929190505050955095509550955095509550620f42408e02965060008a90508073ffffffffffffffffffffffffffffffffffffffff1663e3ee160e33308b8b8b8b8b8b8b6040518a63ffffffff1660e01b8152600401808a73ffffffffffffffffffffffffffffffffffffffff1681526020018973ffffffffffffffffffffffffffffffffffffffff1681526020018881526020018781526020018681526020018581526020018460ff1681526020018381526020018281526020019950505050505050505050600060405180830381600087803b158015611cea57600080fd5b505af1158015611cfe573d6000803e3d6000fd5b50505050505050505050505b5b5050505050505050565b60011515600260003373ffffffffffffffffffffffffffffffffffffffff1673ffffffffffffffffffffffffffffffffffffffff16815260200190815260200160002060009054906101000a900460ff16151514611ddb576040517f08c379a00000000000000000000000000000000000000000000000000000000081526004018080602001828103825260158152602001807f596f75206469646e2774206576656e206a6f696e21000000000000000000000081525060200191505060405180910390fd5b6000600260003373ffffffffffffffffffffffffffffffffffffffff1673ffffffffffffffffffffffffffffffffffffffff16815260200190815260200160002060006101000a81548160ff02191690831515021790555060016003540360038190555060008054906101000a900473ffffffffffffffffffffffffffffffffffffffff1673ffffffffffffffffffffffffffffffffffffffff166323b872dd333060008054906101000a900473ffffffffffffffffffffffffffffffffffffffff1673ffffffffffffffffffffffffffffffffffffffff166370a08231336040518263ffffffff1660e01b8152600401808273ffffffffffffffffffffffffffffffffffffffff16815260200191505060206040518083038186803b158015611f0457600080fd5b505afa158015611f18573d6000803e3d6000fd5b505050506040513d6020811015611f2e57600080fd5b81019080805190602001909291905050506040518463ffffffff1660e01b8152600401808473ffffffffffffffffffffffffffffffffffffffff1681526020018373ffffffffffffffffffffffffffffffffffffffff1681526020018281526020019350505050602060405180830381600087803b158015611faf57600080fd5b505af1158015611fc3573d6000803e3d6000fd5b505050506040513d6020811015611fd957600080fd5b81019080805190602001909291905050505060008054906101000a900473ffffffffffffffffffffffffffffffffffffffff1673ffffffffffffffffffffffffffffffffffffffff16638ab1d681336040518263ffffffff1660e01b8152600401808273ffffffffffffffffffffffffffffffffffffffff168152602001915050600060405180830381600087803b15801561207457600080fd5b505af1158015612088573d6000803e3d6000fd5b505050507f6e76fb4c77256006d9c38ec7d82b45a8c8f3c27b1d6766fffc42dfb8de68449233604051808273ffffffffffffffffffffffffffffffffffffffff16815260200191505060405180910390a1565b6000806000600560405180807f44414900000000000000000000000000000000000000000000000000000000008152506003019050908152602001604051809103902060009054906101000a900473ffffffffffffffffffffffffffffffffffffffff16905060008173ffffffffffffffffffffffffffffffffffffffff166370a08231306040518263ffffffff1660e01b8152600401808273ffffffffffffffffffffffffffffffffffffffff16815260200191505060206040518083038186803b1580156121aa57600080fd5b505afa1580156121be573d6000803e3d6000fd5b505050506040513d60208110156121d457600080fd5b810190808051906020019092919050505090506000600460405180807f44414900000000000000000000000000000000000000000000000000000000008152506003019050908152602001604051809103902060009054906101000a900473ffffffffffffffffffffffffffffffffffffffff1690506000731c8756fd2b28e9426cdbdcc7e3c4d64fa9a54728905060008173ffffffffffffffffffffffffffffffffffffffff16630261bf8b6040518163ffffffff1660e01b815260040160206040518083038186803b1580156122ab57600080fd5b505afa1580156122bf573d6000803e3d6000fd5b505050506040513d60208110156122d557600080fd5b8101908080519060200190929190505050905060008173ffffffffffffffffffffffffffffffffffffffff166335ea6a75856040518263ffffffff1660e01b8152600401808273ffffffffffffffffffffffffffffffffffffffff1681526020019150506101a06040518083038186803b15801561235257600080fd5b505afa158015612366573d6000803e3d6000fd5b505050506040513d6101a081101561237d57600080fd5b81019080805190602001909291908051906020019092919080519060200190929190805190602001909291908051906020019092919080519060200190929190805190602001909291908051906020019092919080519060200190929190805190602001909291908051906020019092919080519060200190929190805190602001909291905050505050505050505050945050505050848197509750505050505050909156fe416d6f756e7420746f20696e766573742063616e6e6f7420626520686967686572207468616e206465706f736974656420616d6f756e742e596f752063616e2774206465706f73697420696620796f75277265206e6f742070617274206f662074686520636f6d6d756e697479214761736c6573732055534443206973206e6f7420696d706c656d656e74656420696e2041617665207965745468652063757272656e63792070617373656420617320616e20617267756d656e74206973206e6f7420656e61626c65642c20736f7272792154686572652061726520616c7265616479203234206d656d626572732c20736f7272792143616e27742077697468647261772066726f6d20696e766573746d656e742c2070726f6261626c79206e6f7420656e6f756768206c6971756964697479206f6e20416176652e596f752063616e277420776974686472617720696e766573746d656e7420696620796f75277265206e6f742070617274206f662074686520636f6d6d756e69747921596f752063616e277420696e7665737420696620796f75277265206e6f742070617274206f662074686520636f6d6d756e69747921596f7520646f6e2774206861766520656e6f7567682066756e647320746f20696e766573742ea2646970667358221220f5c5baaf5ea016b42c2108e0773346fa8b5c15c499b002e729b2b3c42ce04d0b64736f6c634300060c003360806040523480156200001157600080fd5b506040516200225138038062002251833981810160405260208110156200003757600080fd5b81019080805190602001909291905050506040518060400160405280600481526020017f4469546f000000000000000000000000000000000000000000000000000000008152506040518060400160405280600481526020017f4449544f000000000000000000000000000000000000000000000000000000008152508160039080519060200190620000cc9291906200049a565b508060049080519060200190620000e59291906200049a565b506012600560006101000a81548160ff021916908360ff16021790555050506000620001166200022660201b60201c565b905080600560016101000a81548173ffffffffffffffffffffffffffffffffffffffff021916908373ffffffffffffffffffffffffffffffffffffffff1602179055508073ffffffffffffffffffffffffffffffffffffffff16600073ffffffffffffffffffffffffffffffffffffffff167f8be0079c531659141344cd1fd0a4f28419497f9722a3daafe3b4186f6b6457e060405160405180910390a3506001600660003373ffffffffffffffffffffffffffffffffffffffff1673ffffffffffffffffffffffffffffffffffffffff16815260200190815260200160002060006101000a81548160ff0219169083151502179055506200021f33826200022e60201b60201c565b5062000540565b600033905090565b600073ffffffffffffffffffffffffffffffffffffffff168273ffffffffffffffffffffffffffffffffffffffff161415620002d2576040517f08c379a000000000000000000000000000000000000000000000000000000000815260040180806020018281038252601f8152602001807f45524332303a206d696e7420746f20746865207a65726f20616464726573730081525060200191505060405180910390fd5b620002e6600083836200040c60201b60201c565b62000302816002546200041160201b620013021790919060201c565b60028190555062000360816000808573ffffffffffffffffffffffffffffffffffffffff1673ffffffffffffffffffffffffffffffffffffffff168152602001908152602001600020546200041160201b620013021790919060201c565b6000808473ffffffffffffffffffffffffffffffffffffffff1673ffffffffffffffffffffffffffffffffffffffff168152602001908152602001600020819055508173ffffffffffffffffffffffffffffffffffffffff16600073ffffffffffffffffffffffffffffffffffffffff167fddf252ad1be2c89b69c2b068fc378daa952ba7f163c4a11628f55a4df523b3ef836040518082815260200191505060405180910390a35050565b505050565b60008082840190508381101562000490576040517f08c379a000000000000000000000000000000000000000000000000000000000815260040180806020018281038252601b8152602001807f536166654d6174683a206164646974696f6e206f766572666c6f77000000000081525060200191505060405180910390fd5b8091505092915050565b828054600181600116156101000203166002900490600052602060002090601f016020900481019282601f10620004dd57805160ff19168380011785556200050e565b828001600101855582156200050e579182015b828111156200050d578251825591602001919060010190620004f0565b5b5090506200051d919062000521565b5090565b5b808211156200053c57600081600090555060010162000522565b5090565b611d0180620005506000396000f3fe608060405234801561001057600080fd5b506004361061010b5760003560e01c80638ab1d681116100a2578063a457c2d711610071578063a457c2d7146104d5578063a9059cbb14610539578063dd62ed3e1461059d578063e43252d714610615578063f2fde38b146106595761010b565b80638ab1d681146103805780638da5cb5b146103c457806395d89b41146103f85780639b19251a1461047b5761010b565b8063313ce567116100de578063313ce5671461029957806339509351146102ba57806370a082311461031e578063715018a6146103765761010b565b806306fdde0314610110578063095ea7b31461019357806318160ddd146101f757806323b872dd14610215575b600080fd5b61011861069d565b6040518080602001828103825283818151815260200191508051906020019080838360005b8381101561015857808201518184015260208101905061013d565b50505050905090810190601f1680156101855780820380516001836020036101000a031916815260200191505b509250505060405180910390f35b6101df600480360360408110156101a957600080fd5b81019080803573ffffffffffffffffffffffffffffffffffffffff1690602001909291908035906020019092919050505061073f565b60405180821515815260200191505060405180910390f35b6101ff6107ed565b6040518082815260200191505060405180910390f35b6102816004803603606081101561022b57600080fd5b81019080803573ffffffffffffffffffffffffffffffffffffffff169060200190929190803573ffffffffffffffffffffffffffffffffffffffff169060200190929190803590602001909291905050506107f7565b60405180821515815260200191505060405180910390f35b6102a16108a7565b604051808260ff16815260200191505060405180910390f35b610306600480360360408110156102d057600080fd5b81019080803573ffffffffffffffffffffffffffffffffffffffff169060200190929190803590602001909291905050506108be565b60405180821515815260200191505060405180910390f35b6103606004803603602081101561033457600080fd5b81019080803573ffffffffffffffffffffffffffffffffffffffff16906020019092919050505061096c565b6040518082815260200191505060405180910390f35b61037e6109b4565b005b6103c26004803603602081101561039657600080fd5b81019080803573ffffffffffffffffffffffffffffffffffffffff169060200190929190505050610b3f565b005b6103cc610cb1565b604051808273ffffffffffffffffffffffffffffffffffffffff16815260200191505060405180910390f35b610400610cdb565b6040518080602001828103825283818151815260200191508051906020019080838360005b83811015610440578082015181840152602081019050610425565b50505050905090810190601f16801561046d5780820380516001836020036101000a031916815260200191505b509250505060405180910390f35b6104bd6004803603602081101561049157600080fd5b81019080803573ffffffffffffffffffffffffffffffffffffffff169060200190929190505050610d7d565b60405180821515815260200191505060405180910390f35b610521600480360360408110156104eb57600080fd5b81019080803573ffffffffffffffffffffffffffffffffffffffff16906020019092919080359060200190929190505050610d9d565b60405180821515815260200191505060405180910390f35b6105856004803603604081101561054f57600080fd5b81019080803573ffffffffffffffffffffffffffffffffffffffff16906020019092919080359060200190929190505050610e4b565b60405180821515815260200191505060405180910390f35b6105ff600480360360408110156105b357600080fd5b81019080803573ffffffffffffffffffffffffffffffffffffffff169060200190929190803573ffffffffffffffffffffffffffffffffffffffff169060200190929190505050610ef9565b6040518082815260200191505060405180910390f35b6106576004803603602081101561062b57600080fd5b81019080803573ffffffffffffffffffffffffffffffffffffffff169060200190929190505050610f80565b005b61069b6004803603602081101561066f57600080fd5b81019080803573ffffffffffffffffffffffffffffffffffffffff1690602001909291905050506110f2565b005b606060038054600181600116156101000203166002900480601f0160208091040260200160405190810160405280929190818152602001828054600181600116156101000203166002900480156107355780601f1061070a57610100808354040283529160200191610735565b820191906000526020600020905b81548152906001019060200180831161071857829003601f168201915b5050505050905090565b6000600660003373ffffffffffffffffffffffffffffffffffffffff1673ffffffffffffffffffffffffffffffffffffffff16815260200190815260200160002060009054906101000a900460ff166107db576040517f08c379a0000000000000000000000000000000000000000000000000000000008152600401808060200182810382526000815260200160200191505060405180910390fd5b6107e5838361138a565b905092915050565b6000600254905090565b6000600660003373ffffffffffffffffffffffffffffffffffffffff1673ffffffffffffffffffffffffffffffffffffffff16815260200190815260200160002060009054906101000a900460ff16610893576040517f08c379a0000000000000000000000000000000000000000000000000000000008152600401808060200182810382526000815260200160200191505060405180910390fd5b61089e8484846113a8565b90509392505050565b6000600560009054906101000a900460ff16905090565b6000600660003373ffffffffffffffffffffffffffffffffffffffff1673ffffffffffffffffffffffffffffffffffffffff16815260200190815260200160002060009054906101000a900460ff1661095a576040517f08c379a0000000000000000000000000000000000000000000000000000000008152600401808060200182810382526000815260200160200191505060405180910390fd5b6109648383611481565b905092915050565b60008060008373ffffffffffffffffffffffffffffffffffffffff1673ffffffffffffffffffffffffffffffffffffffff168152602001908152602001600020549050919050565b6109bc611534565b73ffffffffffffffffffffffffffffffffffffffff16600560019054906101000a900473ffffffffffffffffffffffffffffffffffffffff1673ffffffffffffffffffffffffffffffffffffffff1614610a7e576040517f08c379a00000000000000000000000000000000000000000000000000000000081526004018080602001828103825260208152602001807f4f776e61626c653a2063616c6c6572206973206e6f7420746865206f776e657281525060200191505060405180910390fd5b600073ffffffffffffffffffffffffffffffffffffffff16600560019054906101000a900473ffffffffffffffffffffffffffffffffffffffff1673ffffffffffffffffffffffffffffffffffffffff167f8be0079c531659141344cd1fd0a4f28419497f9722a3daafe3b4186f6b6457e060405160405180910390a36000600560016101000a81548173ffffffffffffffffffffffffffffffffffffffff021916908373ffffffffffffffffffffffffffffffffffffffff160217905550565b610b47611534565b73ffffffffffffffffffffffffffffffffffffffff16600560019054906101000a900473ffffffffffffffffffffffffffffffffffffffff1673ffffffffffffffffffffffffffffffffffffffff1614610c09576040517f08c379a00000000000000000000000000000000000000000000000000000000081526004018080602001828103825260208152602001807f4f776e61626c653a2063616c6c6572206973206e6f7420746865206f776e657281525060200191505060405180910390fd5b6000600660008373ffffffffffffffffffffffffffffffffffffffff1673ffffffffffffffffffffffffffffffffffffffff16815260200190815260200160002060006101000a81548160ff0219169083151502179055507fcdd2e9b91a56913d370075169cefa1602ba36be5301664f752192bb1709df75781604051808273ffffffffffffffffffffffffffffffffffffffff16815260200191505060405180910390a150565b6000600560019054906101000a900473ffffffffffffffffffffffffffffffffffffffff16905090565b606060048054600181600116156101000203166002900480601f016020809104026020016040519081016040528092919081815260200182805460018160011615610100020316600290048015610d735780601f10610d4857610100808354040283529160200191610d73565b820191906000526020600020905b815481529060010190602001808311610d5657829003601f168201915b5050505050905090565b60066020528060005260406000206000915054906101000a900460ff1681565b6000600660003373ffffffffffffffffffffffffffffffffffffffff1673ffffffffffffffffffffffffffffffffffffffff16815260200190815260200160002060009054906101000a900460ff16610e39576040517f08c379a0000000000000000000000000000000000000000000000000000000008152600401808060200182810382526000815260200160200191505060405180910390fd5b610e43838361153c565b905092915050565b6000600660003373ffffffffffffffffffffffffffffffffffffffff1673ffffffffffffffffffffffffffffffffffffffff16815260200190815260200160002060009054906101000a900460ff16610ee7576040517f08c379a0000000000000000000000000000000000000000000000000000000008152600401808060200182810382526000815260200160200191505060405180910390fd5b610ef18383611609565b905092915050565b6000600160008473ffffffffffffffffffffffffffffffffffffffff1673ffffffffffffffffffffffffffffffffffffffff16815260200190815260200160002060008373ffffffffffffffffffffffffffffffffffffffff1673ffffffffffffffffffffffffffffffffffffffff16815260200190815260200160002054905092915050565b610f88611534565b73ffffffffffffffffffffffffffffffffffffffff16600560019054906101000a900473ffffffffffffffffffffffffffffffffffffffff1673ffffffffffffffffffffffffffffffffffffffff161461104a576040517f08c379a00000000000000000000000000000000000000000000000000000000081526004018080602001828103825260208152602001807f4f776e61626c653a2063616c6c6572206973206e6f7420746865206f776e657281525060200191505060405180910390fd5b6001600660008373ffffffffffffffffffffffffffffffffffffffff1673ffffffffffffffffffffffffffffffffffffffff16815260200190815260200160002060006101000a81548160ff0219169083151502179055507fa850ae9193f515cbae8d35e8925bd2be26627fc91bce650b8652ed254e9cab0381604051808273ffffffffffffffffffffffffffffffffffffffff16815260200191505060405180910390a150565b6110fa611534565b73ffffffffffffffffffffffffffffffffffffffff16600560019054906101000a900473ffffffffffffffffffffffffffffffffffffffff1673ffffffffffffffffffffffffffffffffffffffff16146111bc576040517f08c379a00000000000000000000000000000000000000000000000000000000081526004018080602001828103825260208152602001807f4f776e61626c653a2063616c6c6572206973206e6f7420746865206f776e657281525060200191505060405180910390fd5b600073ffffffffffffffffffffffffffffffffffffffff168173ffffffffffffffffffffffffffffffffffffffff161415611242576040517f08c379a0000000000000000000000000000000000000000000000000000000008152600401808060200182810382526026815260200180611bc86026913960400191505060405180910390fd5b8073ffffffffffffffffffffffffffffffffffffffff16600560019054906101000a900473ffffffffffffffffffffffffffffffffffffffff1673ffffffffffffffffffffffffffffffffffffffff167f8be0079c531659141344cd1fd0a4f28419497f9722a3daafe3b4186f6b6457e060405160405180910390a380600560016101000a81548173ffffffffffffffffffffffffffffffffffffffff021916908373ffffffffffffffffffffffffffffffffffffffff16021790555050565b600080828401905083811015611380576040517f08c379a000000000000000000000000000000000000000000000000000000000815260040180806020018281038252601b8152602001807f536166654d6174683a206164646974696f6e206f766572666c6f77000000000081525060200191505060405180910390fd5b8091505092915050565b600061139e611397611534565b8484611627565b6001905092915050565b60006113b584848461181e565b611476846113c1611534565b61147185604051806060016040528060288152602001611c3660289139600160008b73ffffffffffffffffffffffffffffffffffffffff1673ffffffffffffffffffffffffffffffffffffffff1681526020019081526020016000206000611427611534565b73ffffffffffffffffffffffffffffffffffffffff1673ffffffffffffffffffffffffffffffffffffffff16815260200190815260200160002054611adf9092919063ffffffff16565b611627565b600190509392505050565b600061152a61148e611534565b84611525856001600061149f611534565b73ffffffffffffffffffffffffffffffffffffffff1673ffffffffffffffffffffffffffffffffffffffff16815260200190815260200160002060008973ffffffffffffffffffffffffffffffffffffffff1673ffffffffffffffffffffffffffffffffffffffff1681526020019081526020016000205461130290919063ffffffff16565b611627565b6001905092915050565b600033905090565b60006115ff611549611534565b846115fa85604051806060016040528060258152602001611ca76025913960016000611573611534565b73ffffffffffffffffffffffffffffffffffffffff1673ffffffffffffffffffffffffffffffffffffffff16815260200190815260200160002060008a73ffffffffffffffffffffffffffffffffffffffff1673ffffffffffffffffffffffffffffffffffffffff16815260200190815260200160002054611adf9092919063ffffffff16565b611627565b6001905092915050565b600061161d611616611534565b848461181e565b6001905092915050565b600073ffffffffffffffffffffffffffffffffffffffff168373ffffffffffffffffffffffffffffffffffffffff1614156116ad576040517f08c379a0000000000000000000000000000000000000000000000000000000008152600401808060200182810382526024815260200180611c836024913960400191505060405180910390fd5b600073ffffffffffffffffffffffffffffffffffffffff168273ffffffffffffffffffffffffffffffffffffffff161415611733576040517f08c379a0000000000000000000000000000000000000000000000000000000008152600401808060200182810382526022815260200180611bee6022913960400191505060405180910390fd5b80600160008573ffffffffffffffffffffffffffffffffffffffff1673ffffffffffffffffffffffffffffffffffffffff16815260200190815260200160002060008473ffffffffffffffffffffffffffffffffffffffff1673ffffffffffffffffffffffffffffffffffffffff168152602001908152602001600020819055508173ffffffffffffffffffffffffffffffffffffffff168373ffffffffffffffffffffffffffffffffffffffff167f8c5be1e5ebec7d5bd14f71427d1e84f3dd0314c0f7b2291e5b200ac8c7c3b925836040518082815260200191505060405180910390a3505050565b600073ffffffffffffffffffffffffffffffffffffffff168373ffffffffffffffffffffffffffffffffffffffff1614156118a4576040517f08c379a0000000000000000000000000000000000000000000000000000000008152600401808060200182810382526025815260200180611c5e6025913960400191505060405180910390fd5b600073ffffffffffffffffffffffffffffffffffffffff168273ffffffffffffffffffffffffffffffffffffffff16141561192a576040517f08c379a0000000000000000000000000000000000000000000000000000000008152600401808060200182810382526023815260200180611ba56023913960400191505060405180910390fd5b611935838383611b9f565b6119a081604051806060016040528060268152602001611c10602691396000808773ffffffffffffffffffffffffffffffffffffffff1673ffffffffffffffffffffffffffffffffffffffff16815260200190815260200160002054611adf9092919063ffffffff16565b6000808573ffffffffffffffffffffffffffffffffffffffff1673ffffffffffffffffffffffffffffffffffffffff16815260200190815260200160002081905550611a33816000808573ffffffffffffffffffffffffffffffffffffffff1673ffffffffffffffffffffffffffffffffffffffff1681526020019081526020016000205461130290919063ffffffff16565b6000808473ffffffffffffffffffffffffffffffffffffffff1673ffffffffffffffffffffffffffffffffffffffff168152602001908152602001600020819055508173ffffffffffffffffffffffffffffffffffffffff168373ffffffffffffffffffffffffffffffffffffffff167fddf252ad1be2c89b69c2b068fc378daa952ba7f163c4a11628f55a4df523b3ef836040518082815260200191505060405180910390a3505050565b6000838311158290611b8c576040517f08c379a00000000000000000000000000000000000000000000000000000000081526004018080602001828103825283818151815260200191508051906020019080838360005b83811015611b51578082015181840152602081019050611b36565b50505050905090810190601f168015611b7e5780820380516001836020036101000a031916815260200191505b509250505060405180910390fd5b5060008385039050809150509392505050565b50505056fe45524332303a207472616e7366657220746f20746865207a65726f20616464726573734f776e61626c653a206e6577206f776e657220697320746865207a65726f206164647265737345524332303a20617070726f766520746f20746865207a65726f206164647265737345524332303a207472616e7366657220616d6f756e7420657863656564732062616c616e636545524332303a207472616e7366657220616d6f756e74206578636565647320616c6c6f77616e636545524332303a207472616e736665722066726f6d20746865207a65726f206164647265737345524332303a20617070726f76652066726f6d20746865207a65726f206164647265737345524332303a2064656372656173656420616c6c6f77616e63652062656c6f77207a65726fa26469706673582212209dc6389c89b3c18627bff54f4451368631cb871b13b4a310998f765c7561dafa64736f6c634300060c0033",
  "immutableReferences": {},
  "source": "//SPDX-License-Identifier: MIT\r\npragma solidity ^0.6.10;\r\n\r\nimport \"@openzeppelin/contracts/math/SafeMath.sol\";\r\nimport \"@openzeppelin/contracts/token/ERC20/IERC20.sol\";\r\nimport \"@openzeppelin/contracts/access/Ownable.sol\";\r\n\r\nimport \"./ILendingPoolAddressesProvider.sol\";\r\nimport \"./ILendingPool.sol\";\r\nimport \"./IAtoken.sol\";\r\nimport \"./IFiatTokenV2.sol\";\r\n\r\nimport \"./DITOToken.sol\";\r\nimport \"./WadRayMath.sol\";\r\nimport \"./NoGSNCommunitiesRegistry.sol\";\r\n\r\n/**\r\n * @title DistributedTown Community\r\n *\r\n * @dev Implementation of the Community concept in the scope of the DistributedTown project\r\n * @author DistributedTown\r\n */\r\ncontract NoGSNCommunity {\r\n    using SafeMath for uint256;\r\n    using WadRayMath for uint256;\r\n\r\n    /**\r\n     * @dev emitted when a member is added\r\n     * @param _member the user which just joined the community\r\n     * @param _transferredTokens the amount of transferred dito tokens on join\r\n     **/\r\n    event MemberAdded(address _member, uint256 _transferredTokens);\r\n    /**\r\n     * @dev emitted when a member leaves the community\r\n     * @param _member the user which just left the community\r\n     **/\r\n    event MemberRemoved(address _member);\r\n\r\n    // The address of the DITOToken ERC20 contract instantiated on Community creation\r\n    DITOToken public tokens;\r\n    NoGSNCommunitiesRegistry communitiesRegistry;\r\n\r\n    mapping(address => bool) public enabledMembers;\r\n    uint256 public numberOfMembers;\r\n    mapping(string => address) public depositableCurrenciesContracts;\r\n    mapping(string => address) public depositableACurrenciesContracts;\r\n    string[] public depositableCurrencies;\r\n\r\n    modifier onlyEnabledCurrency(string memory _currency) {\r\n        require(\r\n            depositableCurrenciesContracts[_currency] != address(0),\r\n            \"The currency passed as an argument is not enabled, sorry!\"\r\n        );\r\n        _;\r\n    }\r\n\r\n    // Get the forwarder address for the network\r\n    // you are using from\r\n    // https://docs.opengsn.org/gsn-provider/networks.html\r\n    // 0x25CEd1955423BA34332Ec1B60154967750a0297D is ropsten's one\r\n    constructor(NoGSNCommunitiesRegistry _communitiesRegistry) public {\r\n        communitiesRegistry = _communitiesRegistry;\r\n\r\n        tokens = new DITOToken(96000 * 1e18);\r\n\r\n        depositableCurrencies.push(\"DAI\");\r\n        depositableCurrencies.push(\"USDC\");\r\n\r\n        depositableCurrenciesContracts[\"DAI\"] = address(\r\n            0xf80A32A835F79D7787E8a8ee5721D0fEaFd78108\r\n        );\r\n        depositableCurrenciesContracts[\"USDC\"] = address(\r\n            0x07865c6E87B9F70255377e024ace6630C1Eaa37F\r\n        );\r\n\r\n        depositableACurrenciesContracts[\"DAI\"] = address(\r\n            0xcB1Fe6F440c49E9290c3eb7f158534c2dC374201\r\n        );\r\n    }\r\n\r\n    /**\r\n     * @dev makes the calling user join the community if required conditions are met\r\n     * @param _amountOfDITOToRedeem the amount of dito tokens for which this user is eligible\r\n     **/\r\n    function join(uint256 _amountOfDITOToRedeem) public {\r\n        require(numberOfMembers < 24, \"There are already 24 members, sorry!\");\r\n        require(enabledMembers[msg.sender] == false, \"You already joined!\");\r\n\r\n        enabledMembers[msg.sender] = true;\r\n        numberOfMembers = numberOfMembers + 1;\r\n        tokens.addToWhitelist(msg.sender);\r\n\r\n        tokens.transfer(msg.sender, _amountOfDITOToRedeem * 1e18);\r\n\r\n        emit MemberAdded(msg.sender, _amountOfDITOToRedeem);\r\n    }\r\n\r\n    /**\r\n     * @dev makes the calling user leave the community if required conditions are met\r\n     **/\r\n    function leave() public {\r\n        require(enabledMembers[msg.sender] == true, \"You didn't even join!\");\r\n\r\n        enabledMembers[msg.sender] = false;\r\n        numberOfMembers = numberOfMembers - 1;\r\n\r\n        // leaving user must first give allowance\r\n        // then can call this\r\n        tokens.transferFrom(\r\n            msg.sender,\r\n            address(this),\r\n            tokens.balanceOf(msg.sender)\r\n        );\r\n\r\n        tokens.removeFromWhitelist(msg.sender);\r\n\r\n        emit MemberRemoved(msg.sender);\r\n    }\r\n\r\n    /**\r\n     * @dev makes the calling user deposit funds in the community if required conditions are met\r\n     * @param _amount number of currency which the user wants to deposit\r\n     * @param _currency currency the user wants to deposit (as of now only DAI and USDC)\r\n     * @param _optionalSignatureInfo abiEncoded data in order to make USDC2 gasless transactions\r\n     **/\r\n    function deposit(\r\n        uint256 _amount,\r\n        string memory _currency,\r\n        bytes memory _optionalSignatureInfo\r\n    ) public onlyEnabledCurrency(_currency) {\r\n        require(\r\n            enabledMembers[msg.sender] == true,\r\n            \"You can't deposit if you're not part of the community!\"\r\n        );\r\n\r\n        address currencyAddress = address(\r\n            depositableCurrenciesContracts[_currency]\r\n        );\r\n        IERC20 currency = IERC20(currencyAddress);\r\n        require(\r\n            currency.balanceOf(msg.sender) <= _amount * 1e18,\r\n            \"You don't have enough funds to invest.\"\r\n        );\r\n\r\n        bytes32 currencyStringHash = keccak256(bytes(_currency));\r\n        uint256 amount = _amount * 1e18;\r\n\r\n        if (currencyStringHash == keccak256(bytes(\"DAI\"))) {\r\n            currency.transferFrom(msg.sender, address(this), amount);\r\n        } else if (currencyStringHash == keccak256(bytes(\"USDC\"))) {\r\n            (\r\n                uint256 _validAfter,\r\n                uint256 _validBefore,\r\n                bytes32 _nonce,\r\n                uint8 _v,\r\n                bytes32 _r,\r\n                bytes32 _s\r\n            ) = abi.decode(\r\n                _optionalSignatureInfo,\r\n                (uint256, uint256, bytes32, uint8, bytes32, bytes32)\r\n            );\r\n\r\n            amount = _amount * 1e6;\r\n\r\n            IFiatTokenV2 usdcv2 = IFiatTokenV2(currencyAddress);\r\n\r\n            usdcv2.transferWithAuthorization(\r\n                msg.sender,\r\n                address(this),\r\n                amount,\r\n                _validAfter,\r\n                _validBefore,\r\n                _nonce,\r\n                _v,\r\n                _r,\r\n                _s\r\n            );\r\n        }\r\n    }\r\n\r\n    /**\r\n     * @dev makes the calling user lend funds that are in the community contract into Aave if required conditions are met\r\n     * @param _amount number of currency which the user wants to lend\r\n     * @param _currency currency the user wants to deposit (as of now only DAI)\r\n     **/\r\n    function invest(uint256 _amount, string memory _currency)\r\n        public\r\n        onlyEnabledCurrency(_currency)\r\n    {\r\n        require(\r\n            enabledMembers[msg.sender] == true,\r\n            \"You can't invest if you're not part of the community!\"\r\n        );\r\n        require(\r\n            keccak256(bytes(_currency)) != keccak256(bytes(\"USDC\")),\r\n            \"Gasless USDC is not implemented in Aave yet\"\r\n        );\r\n\r\n        address currencyAddress = address(\r\n            depositableCurrenciesContracts[_currency]\r\n        );\r\n        IERC20 currency = IERC20(currencyAddress);\r\n\r\n        // Transfer currency\r\n        require(\r\n            currency.balanceOf(address(this)) <= _amount * 1e18,\r\n            \"Amount to invest cannot be higher than deposited amount.\"\r\n        );\r\n\r\n        // Retrieve LendingPool address\r\n        ILendingPoolAddressesProvider provider = ILendingPoolAddressesProvider(\r\n            address(0x1c8756FD2B28e9426CDBDcC7E3c4d64fa9A54728)\r\n        ); // Ropsten address, for other addresses: https://docs.aave.com/developers/developing-on-aave/deployed-contract-instances\r\n        ILendingPool lendingPool = ILendingPool(provider.getLendingPool());\r\n\r\n        uint256 amount = 10000000 * 1e18;\r\n        uint16 referral = 0;\r\n\r\n        // Approve LendingPool contract to move your DAI\r\n        currency.approve(provider.getLendingPoolCore(), amount);\r\n\r\n        // Deposit _amount DAI\r\n        lendingPool.deposit(currencyAddress, _amount * 1e18, referral);\r\n    }\r\n\r\n    /**\r\n     * @dev Returns the balance invested by the contract in Aave (invested + interest) and the APY\r\n     * @return investedBalance the aDai balance of the contract\r\n     * @return investedTokenAPY the median APY of invested balance\r\n     **/\r\n    function getInvestedBalanceInfo()\r\n        public\r\n        view\r\n        returns (uint256 investedBalance, uint256 investedTokenAPY)\r\n    {\r\n        address aDaiAddress = address(depositableACurrenciesContracts[\"DAI\"]); // Ropsten aDAI\r\n\r\n        // Client has to convert to balanceOf / 1e18\r\n        uint256 _investedBalance = IAtoken(aDaiAddress).balanceOf(\r\n            address(this)\r\n        );\r\n\r\n        address daiAddress = address(depositableCurrenciesContracts[\"DAI\"]);\r\n\r\n        // Retrieve LendingPool address\r\n        ILendingPoolAddressesProvider provider = ILendingPoolAddressesProvider(\r\n            address(0x1c8756FD2B28e9426CDBDcC7E3c4d64fa9A54728)\r\n        ); // Ropsten address, for other addresses: https://docs.aave.com/developers/developing-on-aave/deployed-contract-instances\r\n        ILendingPool lendingPool = ILendingPool(provider.getLendingPool());\r\n\r\n        // Client has to convert to balanceOf / 1e27\r\n        (, , , , uint256 daiLiquidityRate, , , , , , , , ) = lendingPool\r\n            .getReserveData(daiAddress);\r\n\r\n        return (_investedBalance, daiLiquidityRate);\r\n    }\r\n\r\n    /**\r\n     * @dev makes the calling user withdraw funds that are in Aave back into the community contract if required conditions are met\r\n     * @param _amount amount of currency which the user wants to withdraw\r\n     * @param _currency currency the user wants to deposit (as of now only DAI)\r\n     **/\r\n    function withdrawFromInvestment(uint256 _amount, string memory _currency)\r\n        public\r\n        onlyEnabledCurrency(_currency)\r\n    {\r\n        require(\r\n            enabledMembers[msg.sender] == true,\r\n            \"You can't withdraw investment if you're not part of the community!\"\r\n        );\r\n        require(\r\n            keccak256(bytes(_currency)) != keccak256(bytes(\"USDC\")),\r\n            \"Gasless USDC is not implemented in Aave yet\"\r\n        );\r\n\r\n        // Retrieve aCurrencyAddress\r\n        address aCurrencyAddress = address(\r\n            depositableACurrenciesContracts[_currency]\r\n        );\r\n        IAtoken aCurrency = IAtoken(aCurrencyAddress);\r\n\r\n        if (aCurrency.isTransferAllowed(address(this), _amount * 1e18) == false)\r\n            revert(\r\n                \"Can't withdraw from investment, probably not enough liquidity on Aave.\"\r\n            );\r\n\r\n        // Redeems _amount aCurrency\r\n        aCurrency.redeem(_amount * 1e18);\r\n    }\r\n}\r\n",
  "sourcePath": "/mnt/c/Users/lorenzo/Desktop/Personale/distributed-town-smart-contracts/contracts/NoGSNCommunity.sol",
  "compiler": {
    "name": "solc",
    "version": "0.6.12+commit.27d51765.Emscripten.clang"
  },
  "schemaVersion": "3.3.1",
  "updatedAt": "2020-11-13T15:43:39.075Z",
  "devdoc": {
    "author": "DistributedTown",
    "details": "Implementation of the Community concept in the scope of the DistributedTown project",
    "events": {
      "MemberAdded(address,uint256)": {
        "details": "emitted when a member is added",
        "params": {
          "_member": "the user which just joined the community",
          "_transferredTokens": "the amount of transferred dito tokens on join*"
        }
      },
      "MemberRemoved(address)": {
        "details": "emitted when a member leaves the community",
        "params": {
          "_member": "the user which just left the community*"
        }
      }
    },
    "kind": "dev",
    "methods": {
      "deposit(uint256,string,bytes)": {
        "details": "makes the calling user deposit funds in the community if required conditions are met",
        "params": {
          "_amount": "number of currency which the user wants to deposit",
          "_currency": "currency the user wants to deposit (as of now only DAI and USDC)",
          "_optionalSignatureInfo": "abiEncoded data in order to make USDC2 gasless transactions*"
        }
      },
      "getInvestedBalanceInfo()": {
        "details": "Returns the balance invested by the contract in Aave (invested + interest) and the APY",
        "returns": {
          "investedBalance": "the aDai balance of the contract",
          "investedTokenAPY": "the median APY of invested balance*"
        }
      },
      "invest(uint256,string)": {
        "details": "makes the calling user lend funds that are in the community contract into Aave if required conditions are met",
        "params": {
          "_amount": "number of currency which the user wants to lend",
          "_currency": "currency the user wants to deposit (as of now only DAI)*"
        }
      },
      "join(uint256)": {
        "details": "makes the calling user join the community if required conditions are met",
        "params": {
          "_amountOfDITOToRedeem": "the amount of dito tokens for which this user is eligible*"
        }
      },
      "leave()": {
        "details": "makes the calling user leave the community if required conditions are met*"
      },
      "withdrawFromInvestment(uint256,string)": {
        "details": "makes the calling user withdraw funds that are in Aave back into the community contract if required conditions are met",
        "params": {
          "_amount": "amount of currency which the user wants to withdraw",
          "_currency": "currency the user wants to deposit (as of now only DAI)*"
        }
      }
    },
    "title": "DistributedTown Community",
    "version": 1
  },
  "userdoc": {
    "kind": "user",
    "methods": {},
    "version": 1
  }
}